:020000040800F2
:1000000000400020312B0008172B00082B2B000884
:10001000172B0008172B0008172B00080000000002
:10002000000000000000000000000000172B000886
:10003000172B000800000000172B0008E12B000818
:10004000172B0008172B0008172B0008172B000888
:10005000172B0008172B0008172B0008172B000878
:10006000172B0008172B0008172B0008172B000868
:10007000172B0008172B0008172B0008172B000858
:10008000172B0008172B0008172B0008172B000848
:10009000172B0008172B0008172B0008E117000882
:1000A000172B0008172B0008172B0008172B000828
:1000B000172B000855090008172B0008172B0008FC
:1000C000172B0008172B0008172B0008172B000808
:1000D000172B0008E5180008172B0008172B00083D
:1000E000F5170008172B0008172B0008172B00081E
:1000F000172B0008172B0008172B0008172B0008D8
:10010000000000000000000000000000172B0008A5
:10011000172B0008172B0008172B0008172B0008B7
:10012000172B0008172B0008172B0008172B0008A7
:10013000172B0008172B000800000000000000002B
:10014000172B0008172B0008172B000800000000D1
:10015000000000000000000000000000000000009F
:100160000000000000000000172B0008172B0008FB
:10017000172B000800000000000000000000000035
:0801800000000000172B00082D
:1001880010B5044601F0B2FA002803DAA0F51C50B5
:10019800103810BD204601F045FB002803DAA0F511
:1001A8009C40203810BD0E4800F006FC002803DAF9
:1001B800A0F5EA40303810BD204600F0D3FE0028F4
:1001C80003DAA0F51C40403810BD04F1C40000F06B
:1001D800B9FE0028BCBFA0F54340503810BD00BF91
:1001E8003C01002070B5054600242846FFF7C8FFEB
:1001F80006460A4928462246334601F053FC28465B
:100208001EB9074901F04EFC05E00649013401F02A
:1002180049FC082CE9D1304670BD00BFE02C00082D
:10022800F52C0008FC2C000810B50821044601F044
:10023800BDFA04F1C400BDE8104000F0E7BD10B5F8
:1002480008210446C43401F0A3FA002120460A46D6
:1002580000F072FE204601210022BDE8104000F0A7
:100268006BBEC0F8CC1070472DE9F74F00F184073A
:100278008146384688469A46934601F011F9384631
:1002880001F032FA83680025984421480A2100F0D9
:10029800EBFB09F1C406BAF1000F11D1384601F0A1
:1002A800FFF8384601F020FA8468C4EB0804002CF3
:1002B800CCBF01234FF0FF335D4515DA013513E05C
:1002C800D0470028EAD0002130460A4600F034FE24
:1002D80030460121002200F02FFE0D48142103B002
:1002E800BDE8F04F00F0C0BB03FB05F2304600212B
:1002F800019300F021FE019B6A42304601215A43D6
:1003080000F01AFE002CB8BF6442312CBDDCDAE7DD
:100318003C0100207047704710B54C1E14F8011FAF
:1003280019B1024801F0FEFAF8E710BD30000020CC
:1003380030B585B000238DF80F300A220A2301ACAE
:10034800B1FBF3F503FB1513303313552946531E40
:100358000DB11A46F2E7A118FFF7DEFF05B030BD70
:10036800F8B515481D460E46174600F06FFB0544C4
:10037800124801F045FA0024104801F0DFFA4FF660
:10038800FF7398420DD0335D984209D17B1E9C4281
:1003980001D2013405E0094801F032FA0120F8BD24
:1003A8000024054800F052FBA842E5D3034801F0B9
:1003B80027FA0020F8BD00BF3C01002030000020D3
:1003C80010B50023044640F6B8310360224800F017
:1003D8004BFB2379012B0CBF204921492046FFF70D
:1003E8009BFF1D484FF47A7100F03EFB20461D49E3
:1003F800FFF792FF18484FF47A7100F035FB20465A
:100408001949FFF789FF20461849FFF785FF20465D
:100418001749FFF781FF20461649FFF77DFF204661
:100428001549FFF779FF20461449022244F6206354
:10043800FFF796FF58B12379012B0BD120461049BD
:10044800FFF76AFF0448C82100F00EFB02E06FF0D6
:10045800010010BD002010BD3C010020082D00083F
:10046800162D0008242D0008322D00083D2D000807
:100478008C2D0008472D0008562D0008AE2D0008C9
:100488005A2D00080171FFF79BBF0000F8B5174609
:100498001D460E460B468A18934203D0002103F8E6
:1004A800011BF9E7104800F0D1FA002405440F4871
:1004B80001F044FA4FF6FF7398421CBF30550134DF
:1004C800094800F0C3FABC4207D28542EFD8A842D7
:1004D80094BF20464FF0FF30F8BDA84294BF6FF09C
:1004E80001004FF0FF30F8BD3C0100203000002033
:1004F8002DE9F0411D460368069E012B04468846F7
:10050800174629D04B49FFF707FF4B48642100F0F5
:10051800ABFA20464949FFF7FFFE20464146FFF760
:10052800FBFE20464649FFF7F7FE20463946FFF70F
:10053800FFFE20464349FFF7EFFE204642490722C7
:100548004FF46173FFF70CFF20B920606FF00200D1
:10055800BDE8F0810123236020463C49FFF7DCFE1B
:1005680020463146FFF7E4FE20463649FFF7D4FE21
:100578002046374901224FF47A73FFF7F1FE074608
:1005880008B12E440CE020462A49FFF7C5FE2A4848
:10059800642100F069FA27606FF00300BDE8F0817C
:1005A800B54205D02B4815F8011B01F0BBF9F7E758
:1005B8002046294907224FF47A73FFF7D1FE0546F2
:1005C80020465DB91B49FFF7A7FE1B48642100F0D0
:1005D8004BFA25606FF00400BDE8F0811F49052241
:1005E8004FF47A73FFF7BCFE054660B920461149FF
:1005F800FFF792FE1048642100F036FA25606FF08C
:100608000500BDE8F0810025124801F0B3F9C0B239
:100618003A2805D00A2303FB0500A0F13005F3E7CB
:1006280020460799089A1423FFF730FF2846BDE8AB
:10063800F08100BF6E2D00083C0100207C2D0008D1
:10064800902D0008572D0008932D00089B2D0008B9
:10065800A72D000830000020A92D0008B12D0008A2
:1006680070B506468AB0002404AD002363550134F2
:100678000A2CF9D148238DF8103065238DF81130F4
:100688006C238DF812308DF813304F238DF8143009
:1006980031238DF8153032238DF8163033238DF839
:1006A80017300E4834234FF400418DF8183001F00C
:1006B8006FF807AB019340F2DA722B46009402946C
:1006C80030460749FFF714FF04484FF4004101F092
:1006D8006DF80448642100F0C7F9C4E73000002031
:1006E800B72D00083C01002000228260C260026130
:1006F8004261426000220270704700002DE9F84311
:10070800002301F116082DED028B0D4604460370F7
:1007180041461A4603F10C0031F9026F35F9100011
:100728008642B8BF13460132042AF3D10C33DFEDF9
:100738003B7A35F9133007EE103AB8EEC77AB0EEC7
:10074800678AB4EEE77AF1EE10FA63D504F1080689
:10075800DFED338A04F11809374638F9023F31488A
:100768005B4200EE103AB8EEC00AA7EC010A00F0AE
:10077800B1F8F4EEC08AF1EE10FA06D5294817ED63
:10078800010A00F0A7F8F0EE408A4F45E5D1D6ED12
:10079800007AC7EEA87AE6EC017A4E45F7D1012334
:1007A8002370B5F91830DFED1D7A07EE103AB8EE70
:1007B800C77AB4EEC87AF1EE10FA01D51A4B28E0E0
:1007C800B5F91E3007EE103AB8EEC77AB4EEE77AFC
:1007D800F1EE10FA02D54FF07E531AE0B5F91A304F
:1007E80007EE103AB8EEC77AB4EEE77AF1EE10FAEF
:1007F80002D54FF03F430CE0B5F91C3007EE103A34
:10080800B8EEC77AB4EEE77AF1EE10FA02D54FF0F7
:100818007C536360BDEC028BBDE8F8830000A0C286
:1008280017B7D13808010020000080BF0078704752
:1008380090ED010A7047F0EE007A70EE200A91EE12
:10084800670A0023036070EE810A43608360C0ED8D
:10085800030A80ED040A80ED051A8361C0ED071ACA
:10086800704710B50446FFF7E6FF204610BDD0EDEF
:10087800007AD0ED046A90ED017AC0ED017A67EE56
:10088800A67AD0ED036A80ED027AE6EE807AD0EDA2
:10089800056A80ED000AE6EE877A90ED067A77EE33
:1008A800877A90ED077AC0ED067AF4EEC77AF1EE12
:1008B80010FAC8BF80ED067AD0ED067AB1EE477A15
:1008C800F4EEC77AF1EE10FA48BF80ED067A90EDA3
:1008D800060A7047B5EEC00AF1EE10FA48BFB1EE4D
:1008E800400A704703680B4943F2390201FB0322AF
:1008F8004168026041F3000323F03F5323F47F1360
:1009080023F47F5323F03E0383EA5103436083EAD1
:10091800020070476D4EC64108B5FFF7E3FF094B6B
:10092800B0FBF3F202FB130007EE900A9FED060AF4
:10093800F8EEE77AC7EE807AB7EE000A37EEC00A1B
:1009480008BD00BF80841E00002474490023154A96
:10095800D15C11B1D15CFF291ED1134951F8230094
:1009680028B151F82320013A41F8232009E00F4823
:1009780050F8230041F82300D25C12B9094A01213A
:10098800D1540133082BE2D1094A0A4813680121DE
:100998000133136001F0E0BED15C0131C9B2D1541A
:1009A800DBE700BF300100201001002040010020DB
:1009B800380100200004004030B51F4A002385B0EC
:1009C80013601E494FF4806241F823201C4941F806
:1009D80023201C4A0024D4540133082BF1D11A4D8A
:1009E8000220012101F04CFE4FF48C73ADF8043065
:1009F8002846312301A90293ADF80640ADF80C4012
:100A0800ADF80E4001F04AFE2846012101F096FE9D
:100A1800EB6843F00103EB601D238DF80030684656
:100A280001238DF801408DF802308DF8033001F074
:100A3800CDFF204605B030BD380100201001002050
:100A480040010020300100200004004082B072B64E
:100A5800044B1B68019362B60A230198B0FBF3F0BC
:100A680002B070473801002037B50C460546FFF73D
:100A7800EDFF204401902846019CFFF7E7FF8442E0
:100A880002D901F09FFFF6E703B030BD72B60A2322
:100A98005A43054B43F82120044B43F82120044BCB
:100AA80000225A5462B6704710010020400100200D
:100AB80030010020054B5A5C02F0FF002AB172B6E3
:100AC800585C0022C0B25A5462B670473001002008
:100AD8002DE9F0470446884600F0E0FA20467221E6
:100AE80000F006FBB421204600F002FB204600F08F
:100AF800D5FA2046732100F0FBFA20460121224650
:100B080000F037FB2378A3836378E383A3782384F7
:100B1800E378638401212046224604F11A09651E00
:100B280000F027FBA61C04F1220729464B4633F8A0
:100B3800022F11F8010FBB4242EA00221A80F6D1B7
:100B480020460121224600F014FB2378A380637815
:100B5800E380A3782381E37863810121204622463C
:100B680000F007FB04F10A0A3346294633F8022F3E
:100B780011F8010F534542EA00221A80F6D12046A7
:100B88000121224600F0F5FA2378A3816378E381F6
:100B9800A3782382E378638222462046012100F06D
:100BA800E8FA04F112062A463AF8023F12F8011F41
:100BB800B24543EA0123AAF80030F5D120460121C5
:100BC800224600F0D6FA2378A3826378E382A378DA
:100BD8002383E378638322462046012100F0C9FA83
:100BE8002A4636F8023F12F8011F4E4543EA012310
:100BF8003380F6D120460121224600F0BAFA237844
:100C0800A3846378E384A3782385E3786385224605
:100C18002046002100F0ADFA04F12A0237F8023F1D
:100C280015F8011F974243EA01233B80F6D120467D
:100C380000F049FAB8F1000F25D00023A188B4F8D4
:100C480044200A44A4F84420A189B4F84C200A445A
:100C5800A4F84C20A18AB4F854200A44A4F85420DB
:100C6800A18CB4F864200A44A4F86420A18BB4F8D9
:100C78005C2001330A44042BA4F85C2004F102042C
:100C8800DCD1BDE8F087414672B6A388B4F84400C9
:100C9800B4F84C20B4F85450B4F86460181AA38916
:100CA8009A1AA38A5B1BA58CAD1BA584B4F85C605B
:100CB800A58B80B292B29BB2AD1BA080A281A38209
:100CC800A58362B600B212B285181BB2ED180ED019
:100CD800C0EB0020C2EB022290FBF5F092FBF5F28C
:100CE800C3EB0323A08593FBF5F3A286A387013109
:100CF800042904F10204C7D1BDE8F087F7B5064618
:100D0800354600F091F93346002201320024042AC6
:100D18009C809C819C829C849C83A3F84440A3F87B
:100D28004C40A3F85440A3F86440A3F85C409C8569
:100D38009C869C8703F10203E7D130467221812209
:100D4800FF2300F0FEF9304672218322FF2300F0D2
:100D5800F8F9304672218D22234600F0F2F9304628
:100D680072218022032300F0ECF98F2223233046DE
:100D7800722100F0E6F901AF30462146FFF7A8FEE0
:100D88003B4630467221922200F040FA2346FA5C34
:100D9800692A1CBF01229A4003F1010318BF1443BA
:100DA800042BF4D11F4630460121FFF791FE013F85
:100DB800F9D10421B5F944309B08A5F84430B5F9B8
:100DC8004C309B08A5F84C30B5F954309B08A5F871
:100DD8005430B5F964309B08A5F86430B5F95C3037
:100DE80001394FEA9303A5F85C3005F10205E1D11A
:100DF8003046FFF76DFE14B10248001B00E02046A4
:100E080003B0F0BD18FCFFFF0430704710B5074C65
:100E1800C02120460022182300F0DCFA2046C22117
:100E280000221823BDE8104000F0D4BA6001002069
:100E380070B590E830002C2C74DC14F12C0F11DB09
:100E48002C2D5EDC15F12C0F33DBDCB101E06FF0EB
:100E58002B05002C0DDD062CB8BF0624A40044F099
:100E680002040DE02C2D6FF02B0460DCA542B8BF06
:100E780025466442062CB8BF0624A40044F00104A9
:100E8800E4B200E01B24002213462A48C02100F0E7
:100E9800A1FA2848C0210022234600F09BFA002D21
:100EA80020D016DD062DB8BF0625AD0045F001059A
:100EB80016E0002CCBD11F48C0212246234600F063
:100EC80089FA1C48C02122461B2300F083FA6FF0E0
:100ED8002B056D42062DB8BF0625AD0045F002056D
:100EE800EDB200E01B25002213461248C22100F093
:100EF80071FA2B460F48C2210022BDE8704000F06D
:100F080069BA6CB90B48C0212246234600F062FA40
:100F18000848C02122461B2300F05CFA2C25C4E7B0
:100F28002C2596E72C24A5428CDD254696E72C2512
:100F38009FE700BF60010020012998BF40F82120E9
:100F4800FFF776BF10B5002104460A46FFF7F4FF05
:100F5800204601210022FFF7EFFF2046FFF768FF38
:100F6800002010BD10B50446084800F0B1F920462D
:100F7800FFF7C4FE10B1A0F57A7010BD04F184002B
:100F880000F036FB08B1A0F5FA6010BD6001002042
:100F98006523013B01D000BFFBE7704737B501234C
:100FA80003220546F0248DF804308DF80630694692
:100FB80000234FF090408DF805208DF807300094FD
:100FC80001F04AFD4FF0904328461C85FFF7E0FFEB
:100FD80003B030BD37B5002303220546F024694627
:100FE8004FF090408DF804308DF805208DF80730CB
:100FF800009401F031FD4FF0904328469C61FFF7C3
:10100800C7FF03B030BD0000024B4FF400521A85F1
:10101800FFF7BEBF00080048024B4FF400529A6128
:10102800FFF7B6BF00080048F7B54FF40053054670
:10103800002400930327012317488DF804306946DC
:10104800F0268DF805708DF806408DF8074001F000
:1010580003FD4FF09040694600968DF804408DF8E6
:1010680005708DF8074001F0F7FC31464FF09040CD
:1010780001F034FD2846FFF7CFFF2846FFF78EFF23
:101088002846FFF7A7FF42F21173013B01D000BFCA
:10109800FBE703B0F0BD00BF0008004810B50446E8
:1010A800FFF7BAFF2046FFF795FF2046FFF7B4FF8A
:1010B8002046FFF773FF2046FFF7A6FF2046BDE84E
:1010C8001040FFF787BF10B50446FFF79DFF204685
:1010D800FFF764FF2046FFF79FFF2046FFF75EFFFC
:1010E8002046FFF799FF2046BDE81040FFF772BF82
:1010F80070B504460E4608252046FFF785FF3306DF
:10110800204602D5FFF766FF01E0FFF747FF2046BC
:10111800013DFFF781FF760015F0FF05F6B2EBD130
:101128002046FFF771FF2046FFF754FF2046FFF7E0
:1011380073FF2046FFF768FF2046BDE87040FFF7C1
:1011480027BFF8B504460F4616461D46FFF7A6FF0B
:1011580020463946FFF7CCFF20463146FFF7C8FF47
:1011680020462946FFF7C4FF2046BDE8F840FFF7B0
:10117800AABF00232DE9F041054613705370937000
:10118800D3700E461446D71CFFF73EFF2846FFF7DC
:1011980021FF4FF00808631E13F8012F5200BB42CD
:1011A8001A70F9D12846FFF737FF4FF090431B8A92
:1011B8009BB2D80642BF227842F0010222709906FB
:1011C80042BF627842F0010262705A0642BFA278BA
:1011D80042F00102A2701B0642BFE37843F001030C
:1011E800E3702846FFF710FFB8F10108D3D116B114
:1011F8002846FFF7D3FE2846FFF70EFF2846FFF7DD
:1012080003FF2846BDE8F041FFF7C2BEF8B5044623
:101218000D4617461E46FFF741FF20462946FFF7B1
:1012280067FF39462046FFF763FF2046FFF736FF82
:10123800204645F00101FFF75BFF204632460021BA
:10124800FFF797FF2046BDE8F840FFF73CBF0B23A8
:10125800013B01D000BFFBE77047000073B50C4CA1
:1012680001230322064680258DF804308DF80630C8
:101278002046002369468DF805208DF80730009533
:1012880001F0EAFB25853046FFF7E1FF02B070BDAB
:1012980000040048054B1A6822F440421A601A6894
:1012A8001A6080229A61FFF7D2BF00BF000400488D
:1012B800024B40221A85FFF7CABF00BF000400484E
:1012C800024B40229A61FFF7C2BF00BF00040048EA
:1012D80013B5044601214FF4802001F0B5F9C0236D
:1012E80000930123032269468DF804308DF80630F7
:1012F80009488DF8052000238DF8073001F0ACFB74
:101308002046FFF7DDFF2046FFF7A8FF2046FFF73E
:10131800C1FF02B010BD00BF0004004810B504466C
:10132800FFF7CEFF2046FFF7B5FF2046FFF7C8FFBF
:101338002046FFF793FF2046FFF7BAFF2046BDE897
:101348001040FFF7A7BF10B50446FFF7B1FF2046CE
:10135800FFF784FF2046FFF7B3FF2046FFF77EFF25
:101368002046FFF7ADFF2046BDE81040FFF792BFCB
:1013780070B504460E4608252046FFF799FF330648
:10138800204602D5FFF786FF01E0FFF767FF2046FA
:10139800013DFFF795FF760015F0FF05F6B2EBD19A
:1013A8002046FFF785FF2046FFF774FF2046FFF72A
:1013B80087FF074B1D8A2046FFF77AFFADB220460C
:1013C800FFF745FF85F08000C0F3C01070BD00BF77
:1013D80000040048F8B504460F4616461D46FFF7B8
:1013E8009DFF39462046FFF7C3FF31462046FFF7E9
:1013F800BFFF20462946FFF7BBFF2046BDE8F8405F
:10140800FFF7A1BFF8B505460F46FFF751FF0826BD
:1014180000242846FFF754FF104B1B8A64001B0664
:10142800E4B2284606F1FF3648BF44F00104FFF74E
:101438003FFF16F0FF06ECD1284617B1FFF70EFF65
:1014480001E0FFF727FF2846FFF73AFF2846FFF796
:101458002FFF2846FFF71EFF2046F8BD000400486E
:1014680070B504460D461646FFF758FF2946204634
:10147800FFF77EFF31462046FFF77AFF2046FFF749
:101488004DFF45F001012046FFF772FF002120467D
:10149800FFF7B8FF05462046FFF755FF284670BD01
:1014A80070B5524C05462046FFF738FF2046D42138
:1014B800FFF75EFFA8212046FFF75AFF2046FFF7F7
:1014C8002DFF2046D521FFF753FF20460121FFF7C6
:1014D80099FF012186B22046FFF794FF46EA0020D3
:1014E80000B2686201212046FFF78CFF012186B215
:1014F8002046FFF787FF46EA002000B2A8620121D4
:101508002046FFF77FFF002186B22046FFF77AFFCB
:1015180046EA002000B2E8622046FFF714FF2046A2
:10152800FFF7FCFE20463C21FFF722FFA8212046BA
:10153800FFF71EFF2046FFF7F1FE20463D21FFF78B
:1015480017FF20460121FFF75DFF012186B22046E3
:10155800FFF758FF46EA002000B228630121204621
:10156800FFF750FF012186B22046FFF74BFF46EAFE
:10157800002000B2686301212046FFF743FF0021E5
:1015880086B22046FFF73EFF46EA002000B2A86375
:101598002046FFF7D8FE6A68AB6AA8689B1AEA6813
:1015A800C82693FBF6F31A44EB6BEA6055215943BE
:1015B80040F6E2144A436B6A92FBF4F2AA612A6885
:1015C8009B1A2A6993FBF6F31A442A614A4392FB51
:1015D800F4F2EA61EA6A121A92FBF6F06A69831871
:1015E8006B614B4393FBF4F32B6270BD60010020E9
:1015F8000A232DE9F041C3630023044603604360D6
:101608008360C3600361436142F21175013D01D0FB
:1016180000BFFBE73248D4210F22FFF721FFD4286F
:10162800064655D12E483C210F22FFF719FF4928BD
:1016380052D131462A482022FF23FFF7CBFE3146FC
:101648002748284E23221023FFF7C4FE24483C21B4
:101658001F222B46FFF7BEFE21483C21202267238C
:10166800FFF7B8FE1E483C2121222B46FFF7B2FEA9
:10167800013E01D000BFFBE72046FFF711FF6425BC
:101688003746B0466523013B01D000BFFBE7204643
:10169800FFF706FF636A9844A36A1F44E36A013DA3
:1016A8001E44EFD16422256398FBF2F397FBF2F70F
:1016B80096FBF2F623606760A6606563A5636562C2
:1016C800A562E562A561E56125622846BDE8F0816D
:1016D8004FF0FF30BDE8F0816FF00100BDE8F08108
:1016E80060010020A1860100183070472DE9F34100
:1016F8004FF40030012100F0A7FF224F4FF4802063
:10170800012100F0A1FF4FF40020012100F09CFF0F
:1017180000244FF4004303254FF00108384669467A
:10172800009308268DF804808DF806408DF8055042
:101738008DF8074001F090F969464FF09040009607
:101748008DF804808DF806408DF805508DF8074017
:1017580001F082F94FF400733846694600938DF81A
:1017680004408DF805508DF8074001F075F94FF0E9
:10177800904320461E85044B1C60044B1C6002B03D
:10178800BDE8F081000400486401002068010020E1
:10179800082905D0B1F5004F05D1034B9961704771
:1017A8004FF090431985704700040048082905D078
:1017B800B1F5004F05D1034B198570474FF09043A1
:1017C8009961704700040048024B188A80B221EAE8
:1017D8000000704700040048034A136806200133DC
:1017E800136001F02DB900BF64010020034A13689B
:1017F8000C200133136001F023B900BF68010020F9
:10180800054A00231360054A1360054A0021D15494
:101818000133102BF9D170476C01002080010020A2
:101828007001002070B58AB0FFF7EAFF4FF400306E
:10183800012100F009FF4FF48040012100F012FF60
:101848004FF4C0630293022300248DF80C3002A9E0
:1018580003234FF090408DF80D308DF80E408DF831
:101868000F4001F0F9F84FF090400921072201F0EC
:1018780039F9184D07224FF090400A2101F032F94A
:101888004FF4E133049328460C2304A908930594E4
:1018980006940794099400F065FF2846012100F09A
:1018A800C3FF012228460C4900F0CEFF012625235C
:1018B80001A88DF804308DF805408DF806408DF8A4
:1018C800076001F083F82846314600F0ADFF204656
:1018D8000AB070BD003801400501050008B50D4883
:1018E8000D4900F0CBFF78B10A4800F0A8FF0B4B78
:1018F8000B491A68C0B288541A6801321A601A680B
:101908000F2A84BF00221A6002480349BDE8084034
:1019180000F0D2BF00380140050105006C0100202D
:1019280070010020044BDA69120601D400BFF9E700
:1019380089B21985704700BF003801400A4B0B4A2D
:101948001968126891420CD01A680949885C1A68AB
:1019580001321A601A680F2AC0B204D900221A602C
:1019680070474FF6FF707047800100206C0100201F
:101978007001002010B504462046FFF7DFFF4FF640
:10198800FF73984201D100BFF6E710BD38B5054690
:101998004C1E14F8011F19B12846FFF7C3FFF8E7DA
:1019A800012038BD7FB50B1E4FF00002BABF5B4265
:1019B800012515468DF80F200A210A2201AC93FB58
:1019C800F2F602FB163330330B554A1E33460EB17E
:1019D8001146F2E72DB104AB13442D2103F80C1C7A
:1019E80011462144FFF7D2FF04B070BD30B585B071
:1019F80000238DF80F300A220A2301ACB1FBF3F55E
:101A080003FB1513303313552946531E0DB11A46DF
:101A1800F2E7A118FFF7BAFF05B030BD1FB50023E4
:101A28008DF80F300A2201F00F03092B01ACD4BF47
:101A3800303357330909A35402F1FF3301D01A4652
:101A4800F1E7A118FFF7A2FF04B010BD38B50022D6
:101A5800054601238A4203D00A2043430132F9E7AD
:101A6800BDEEC07A2846F8EEC77A17EE101A30EEA7
:101A7800670A07EE903AF8EE677A20EE270AFDEE3D
:101A8800C07A17EE904AFFF78DFF28462E21FFF700
:101A980049FF84EAE4712846A1EBE471BDE83840C7
:101AA800FFF780BF0EB477B507AB044653F8046B55
:101AB80001930025715D002954D0252904D02046C2
:101AC800FFF730FF0135F5E773195978692916D002
:101AD80007D863292BD0662931D0252940D1204643
:101AE8002AE0752913D0782919D0732938D1019B98
:101AF80020461A1D19680192FFF748FF30E0019B44
:101B080020461A1D19680192FFF74CFF28E0019B37
:101B180020461A1D19680192FFF768FF20E0019B13
:101B280020461A1D19680192FFF778FF18E0019BFB
:101B38001A1D197801922046FFF7F4FE10E0019B68
:101B4800073323F0070303F10802D3E900010192E8
:101B580001F066F8032100EE100A2046FFF776FF31
:101B68000235A7E703B0BDE8704003B07047002313
:101B7800036043608360C360704700F10C03F1ECBD
:101B8800017AD0ED006AB7EE007A37EE407A60EE5F
:101B9800277AE7EE267AE0EC017A9842EFD170478F
:101BA800F8B5DFED176A03460026D0F8C0011C46D9
:101BB8003546854219D0DFED137A8E4604F11007B9
:101BC800B4EC016ABEEC017A37EE467ABC42E7EE25
:101BD800077AF5D1F4EEE67AF1EE10FA44BF2E4614
:101BE800F0EE676A01353C46E3E703F580730C21A4
:101BF800104601FB0631B7EE000AFFF7BEFFF8BD3D
:101C080020BCBE4C000000002DE9F84F08232DED44
:101C1800068B00F15006C0F81032CB4BC0F81432D6
:101C2800044600F5A878354605F11007C748FEF7C1
:101C380073FEA5EC010ABD42F8D14545F4D123460F
:101C480004F1C002DFEDC28A0C33C3ED518AC3ED43
:101C5800528AC3ED538A9342F4D1002304F130052C
:101C6800A362E362284604F14009FFF780FF484673
:101C7800FFF77DFFBFEE00AAC4ED868AC4ED878A10
:101C8800C4ED888A0021B348FEF722FFB148FFF768
:101C9800BBF801462046FEF731FD2046FEF7C8FD99
:101CA800236A6362E3692362A369E36184ED060A38
:101CB80095E80F0004F1400787E80F0004F11803C6
:101CC8000FCB04F5067785E80F003A4630462946DB
:101CD800FFF766FFE36AA3629C48FEF703FE6423EE
:101CE800B0FBF3F202FB130013280BD89748FEF75A
:101CF800F9FD4FF0030AB0FBFAFA0AEB4A0ACAEBFD
:101D0800000A12E04FF0000A3A46534604EB8A01F3
:101D1800B2EC017AD1ED867AB4EE677AF1EE10FA78
:101D2800C8BF9A460133032BF0D1BAF1010FC4F8AA
:101D38002CA014D00BD3BAF1020F1AD18648002177
:101D48000E22FFF7F9F88448012100220FE08248AB
:101D580000210E22FFF7F0F87F48012106E000215C
:101D68007D480A46FFF7E8F87B4851460E22FFF700
:101D7800E3F87A483221FEF777FE00217548FEF72E
:101D8800A7FE7448FFF740F801462046FEF7B6FC68
:101D98002046FEF74DFD6D48FEF79CFDF7EE009AD4
:101DA800D4F82CB0D4F828A039EEC00AF6EE007AA0
:101DB800304629463A4604EB8B0B30EE679AFFF71C
:101DC800EFFED4ED867A9BED868AB4EE678AF1EE53
:101DD80010FA48BFB0EE678AD4ED877AB4EE678A06
:101DE800F1EE10FA48BFB0EE678AD4ED887AB4EE07
:101DF800678AF1EE10FA304649463A4648BFB0EED7
:101E0800678AFFF7CDFEDFED567AD4F81002DFEDD2
:101E1800556AB0EE497AA8EE277A04EB8A0A0021BF
:101E2800B6468AED867A0A46824204F1400318D003
:101E3800DFED477AF446B3EC017ABCEC016A37EE81
:101E4800467AB342E7EE077AF5D1F4EEE67AF1EE98
:101E580010FA44BF1146F0EE676A01320EF1100E17
:101E6800E2E70F281AD8421D04EB0212F3EC017ABC
:101E780092ED007AE7EE287AB342E2EC017AF5D1E6
:101E88000C2303FB00803946B7EE000AFFF775FE06
:101E9800D4F810320133C4F810321AE04A1DD4EDD8
:101EA800856A04EB0212F3EC017A92ED006A39EECE
:101EB800E67A66EEA77AB342E7EE067AE2EC017AB2
:101EC800F1D10C2000FB018094ED850A3946FFF71B
:101ED80054FE2046FEF7AAFC0746F0B91E483946CC
:101EE8006FF00D02FFF728F86FF00D021A48012174
:101EF800FFF722F819484FF49671FEF7B5FD16481A
:101F080039463A46FFF718F8134801213A46FFF7D1
:101F180013F812486421FEF7A7FD9FED130ADFEDC1
:101F2800137A0C48124929EE009AAAEE279ADFED97
:101F3800117A69EE277AB0EE49AAFDEEE77A17EE34
:101F4800902AFFF7AFFD9DE6CDCCCC3D08010020DF
:101F58000000000030000020F40000203C010020B8
:101F68006666663F20BCBE4C0AD7233CA4707D3F02
:101F7800D82D000800007A447047000008B54FF4D7
:101F880000410A48FFF704FC0948FEF75FFD0949CC
:101F980002460648FFF786FD05480A21FEF764FD5C
:101FA80002484FF40041FFF701FCE8E73000002049
:101FB8003C010020C02D000807B56846FEF7AAF9C5
:101FC80000216846FEF75EFA6846FEF749FB684658
:101FD800FEF7A1F903B05DF804FB000070B51C4CD6
:101FE8001C4D20464FF4617116220023FEF73CF980
:101FF80020464FF4617116220023FEF735F920467A
:102008004FF4617116220023FEF72EF920464FF493
:10201800617116220023FEF727F920462946162269
:102028000023FEF721F92046294616220023FEF751
:102038001BF92046294616220023FEF715F92046EB
:10204800294616220023BDE87040FEF70DB900BFEF
:10205800300000207CFCFFFF10B58EB06846FEF70C
:1020680043FB06A8B2EE040ADFED380ADFED381AA2
:10207800B2EE001AFEF7F5FB364800210A22FEF7F9
:1020880005FD34480021FEF715FD0028F9D0002190
:102098003148FEF71DFD3048FEF7B6FE014668469A
:1020A800FEF72CFB6846FEF7C1FB04466846FEF7C0
:1020B800BFFBDFED2A7A2848294920EE270A224665
:1020C800FDEEC07A17EE903AFFF7ECFC6846FEF793
:1020D800ADFB0446D0B16846FEF7AAFBDFED1B7ADC
:1020E80006A837EEC00AFEF7C2FBFDEEC07A1D480F
:1020F80017EE904A002104F10B02FEF71DFF194864
:102108000121C4F10B02FEF717FFBAE72146154873
:102118006FF00A02FEF710FF6FF00A021148012162
:10212800FEF70AFF0B484FF49671FEF79DFC214617
:1021380022460C48FEF700FF0A4801212246FEF716
:10214800FBFE04486421FEF78FFC9AE700000000BC
:10215800000030423C0100203000002000007A449A
:10216800D52D0008F4000020013908B5032912D83C
:10217800DFE801F002060A0CFFF730FFFFF7FEFE6A
:10218800BDE80840FFF718BFFFF766FF0248BDE843
:102198000840FFF739BD08BD840100200000000099
:1021A80030B58FB000F010FC6348FEF71BF80A2129
:1021B8006148FEF756F848A5D5E900455E48FEF7A0
:1021C80033F80422082300935B485C491346FFF761
:1021D80069FC59485A4922462B46FFF763FC594B7C
:1021E800554859490022CDE900233DA3D3E90023EE
:1021F800CDE902233CA3D3E90023CDE906233CA380
:10220800D3E90023CDE908233BA3D3E90023CDE993
:102218000A233BA3D3E90023CDE90445CDE90C23E8
:1022280000220023FFF73EFC484B43484649002262
:10223800CDE9002334A3D3E90023CDE9022334A355
:10224800D3E90023CDE9042333A3D3E90023CDE95F
:10225800062333A3D3E90023CDE9082332A3D3E926
:102268000023CDE90A2332A3D3E90023CDE90C23C7
:1022780000224FF00043FFF715FC2F484FF4007180
:10228800FFF7A2FA48B12C48FDF7D9FF3048FFF70D
:1022980073FE2F480221FFF767FF27484FF40041DC
:1022A800FFF776FA2B480A21FEF7DEFB22484FF4A7
:1022B8000041FFF77BFA4FF496712648FEF7D4FBEE
:1022C8002448FEF7C3FB244902461B48FFF7EAFBF4
:1022D800D3E700BFAFF3008000000060FB21094096
:1022E80000000000D09ABF3F00000020516240402B
:1022F80000000060454A9340000000C0CCCC164066
:10230800000000A047E1164000000000D09ABFBFBF
:1023180000000060FB2109C000000020516240C09D
:1023280000000060454A93C0000000C0CCCC16C035
:10233800000000A047E116C030000020DD2D000895
:10234800FD2D00080000F03F0F2E00080000F0BF30
:10235800A80300203C010020282E00082DE9F041A8
:102368009B4F7B6803F00C03042B05D0082B06D089
:10237800984A0260B3B916E0964B036012E07B6896
:102388007968C3F383439A1CCB0349BFFB6A924B1A
:10239800904903F00F0344BF0133B1FBF3F35343F8
:1023A800036000E000237A688C4EDFF834C2C2F381
:1023B8000312B45C0268E4B222FA04F141607D6859
:1023C800C5F30225755D21FA05FEC0F808E07D68B1
:1023D800C5F3C225755DEDB2E940C160FE6AC6F37A
:1023E800041808F00F0618F0100F3CF81660E046C5
:1023F800B6B204D01EB1B3FBF6F6066100E0026186
:10240800FE6AC6F3442C0CF00F061CF0100F38F8C7
:102418001660B6B204D01EB1B3FBF6F6466100E012
:1024280042613E6BF6065ABF6A4E866182613E6B18
:10243800B6065ABF674EC661C2613E6B76065ABF82
:10244800644E066202623E6BF60506D59A4204D1D6
:10245800A54202D15600466200E041623E6BF60496
:1024680006D59A4204D1A54202D15600866200E000
:1024780081623E6BB60506D59A4204D1A54202D1C7
:102488005600C66200E0C1623E6B760506D59A42E8
:1024980004D1A54202D15600C66400E0C1643E6B77
:1024A800360506D59A4204D1A54202D156000665E2
:1024B80000E001653E6BB60406D59A4204D1A542F8
:1024C80002D15600466500E001653E6B360406D52C
:1024D8009A4204D1A54202D15300836500E0816588
:1024E8003C6B3B4BA40701D1816315E0196B01F0EC
:1024F8000301012901D182630EE0196B01F0030188
:10250800022902D14FF4004305E01B6B03F00303DB
:10251800032B01D12F4B8363396B2D4B11F4403FB3
:1025280002D1C0F83CE018E0196B01F44031B1F574
:10253800803F01D1C26310E0196B01F44031B1F55D
:10254800003F02D14FF4004306E01B6B03F4403315
:10255800B3F5403F01D11F4BC363396B1C4B11F4DA
:10256800402F02D1C0F840E018E0196B01F4402177
:10257800B1F5802F01D1026410E0196B01F44021FC
:10258800B1F5002F02D14FF4004306E01B6B03F4B2
:102598004023B3F5402F01D10E4B0364396B0C4B2C
:1025A80011F4401F02D1C0F844E023E0196B01F494
:1025B8004011B1F5801F01D142641BE0196B01F491
:1025C8004011B1F5001F0DD14FF4004311E000BFD9
:1025D8000010024000127A0000093D00200000208F
:1025E800000000201B6B03F44013B3F5401F01D11A
:1025F800134B4364396B134B11F4400F03D1C0F8EC
:1026080048E0BDE8F081196B01F44001B1F5800F95
:1026180002D18264BDE8F0811A6B02F44002B2F57F
:10262800000F02D14FF4004306E01B6B03F4400394
:10263800B3F5400F01D1024B8364BDE8F08100BFC0
:1026480000127A000010024000BF00BF044B5A6914
:1026580009B1104301E022EA00005861704700BF49
:102668000010024000BF00BF044B9A6909B1104333
:1026780001E022EA00009861704700BF00100240A4
:1026880000BF00BF044BDA6909B1104301E022EA38
:102698000000D861704700BF0010024000BF00BFB3
:1026A80000BF244A038890429BB212D002F5006210
:1026B80090420ED0B0F1804F0BD0A2F598329042E4
:1026C80007D002F58062904203D002F5A43290420E
:1026D80003D14A8823F070031343174A904208D065
:1026E80002F5806290421FBF23F440730A899BB2AF
:1026F800134303804B68C3620B8803850D4B9842D4
:1027080013D003F5006398420FD003F54063984255
:102718000BD003F58063984207D003F58063984295
:1027280003D003F50063984201D14B890386012346
:1027380043617047002C01400010004000BF00BFFB
:10274800038819B19BB243F0010303E023F00103AE
:102758001B041B0C0380704700BFC94389B2016189
:102768007047000030B5044699B00D4600BF00BF61
:1027780000BF00BF00BF00BF00BF036823F0010314
:102788000360436823F440528B68C968134343606D
:102798006A68036811432A6923F4B0530A4323F093
:1027A8000C0313430360836823F440726B6913437B
:1027B800836001A8FFF7D2FD174B9C4201D10F9B04
:1027C8000EE0164B9C4201D1109B09E0144B9C4231
:1027D80001D1119B04E0134B9C420CBF129B139B2D
:1027E8002268296812F4004F18BF5B00B3FBF1F2AE
:1027F80001FB1233B3EB510F236828BF01321B04CE
:1028080041BF4FF6F073C2F34201134041EA03029D
:1028180092B2A28119B030BD003801400044004096
:1028280000480040004C004000BF00BF036811B1E1
:1028380043F0010301E023F001030360704700BF88
:10284800808CC0F30800704710B500BF00BF00BF00
:10285800C1F307240123C9B2022C03FA01F301D101
:10286800043002E0032C08BF083012B10268134399
:1028780002E0026822EA0303036010BD10B500BF3E
:1028880000BFC1F30722CCB20123012A03FA04F3E3
:1028980001D1026803E0022A0CBF42688268134033
:1028A800C2693BB1090C01238B40134214BF0120BC
:1028B800002010BD184610BD00BF00BF0123090C41
:1028C8008B40036270470000394AD2F8883043F4DD
:1028D8007003C2F88830374B1A6842F001021A6058
:1028E8005968354A0A405A601A6822F0847222F4FC
:1028F80080321A601A6822F480221A605A6822F418
:10290800FE025A60DA6A22F00F02DA62196B2B4A69
:1029180082B00A401A6300229A60009201921A68F3
:1029280042F480321A601A6802F400320192009A66
:1029380001320092019A1AB9009AB2F5A04FF2D169
:102948001A6812F4003218BF01220192019A012A72
:1029580005D0174B4FF000629A6002B07047184AD2
:10296800122111605A685A605A685A605A6842F4CB
:1029780080625A605A6822F47C125A605A6842F49B
:10298800E8125A601A6842F080721A601968094A97
:102998008901FBD5516821F003015160516841F06C
:1029A800020151605A6802F00C02082AFAD1D0E7F5
:1029B80000ED00E0001002400CC07FF8CCFC00FFE6
:1029C8000020024000BF7047FFF77EBF10B500BF70
:1029D80000BF00BFC278037812B3174AD1684278A3
:1029E800C943C1F30221C1F10404E4B2A240D4B244
:1029F8000F220A4181780A40224303F1604303F51C
:102A080061431201D2B283F80023037801225909E5
:102A180003F01F0302FA03F3084A42F8213010BDFD
:102A28005A09012103F01F03994002F12003034AC8
:102A380042F8231010BD00BF00ED00E000E100E007
:102A480020F01F01012300F01F00024A83408B5031
:102A5800704700BF14040140F0B500BF00BF00BFBD
:102A680000BF00230E681C460125A54005EA060E96
:102A7800AE452DD10F797A1E012A17D800BF03223F
:102A880085689A4025EA020282604D7982689D40F5
:102A98001543856000BF828892B222EA0E028280C6
:102AA8008A798588A2402A4392B2828003220568E7
:102AB8009A40D2431540056005689F402F43076040
:102AC800C7681740CA7902FA03F547EA0502C260E7
:102AD8000134102C03F10203C6D1F0BD00BF00BFC2
:102AE8008161704710B500BF00BF00BF01F0070348
:102AF800C90800EB81009B00046A0F21994024EA71
:102B080001010162016A9A400A43026210BD6846E7
:102B180020F007018D4601B500BFBDE8014085469C
:102B2800704700BFFDE700000E490F4B5B1A9B1072
:102B380000229A4206D00D4850F8220041F822009F
:102B48000132F6E70A4AD2F8883043F47003C2F833
:102B5800883002F50C72536823F040435360FFF746
:102B68001FBB00BF0000002030000020382E0008E6
:102B780000ED00E070B500221146154B0C2000FB5B
:102B880001F41E19756815F0020F1D460AD1766802
:102B9800F60707D550431C5B185AA4B280B284428A
:102BA80038BF0A460C2048431C5AA4B21CB11C5A10
:102BB800013CA4B21C5201310629DED10C23534337
:102BC800E918498889B2E952024B1A6070BD00BF02
:102BD80068040020B00400202DE9F00FEFF308830B
:102BE8000D4C0E4D226801321DBF22680C2101FBDD
:102BF8000252002314BF93602360FFF7BBFF2268D3
:102C08000C2303FB02539A686FF006039E4682F377
:102C18000888BDE8F00F7047B00400206804002061
:102C28004FEA4102B2F1E04324BFB3F5001CDCF1E6
:102C3800FE5C0DD901F0004C4FEAC0024CEA50701E
:102C4800B2F1004F40EB830008BF20F0010070474D
:102C580011F0804F21D113F13872BCBF01F0004050
:102C6800704741F480114FEA5252C2F11802C2F182
:102C7800200C10FA0CF320FA02F018BF40F0010003
:102C88004FEAC1234FEAD32303FA0CFC40EA0C00B5
:102C980023FA02F34FEA4303CCE77FEA625307D1F2
:102CA80050EA01331EBF4FF0FE4040F44000704729
:102CB80001F0004040F0FE4040F40000704700BFC3
:102CC800F8B500BFF8BC08BC9E467047F8B500BF11
:102CD800F8BC08BC9E4670476B6F64616D612069E3
:102CE8006E6974202569202569203A2000205B4FF1
:102CF8004B5D0A00205B4641494C45445D0A0A0089
:102D080041542B4349504D55583D310D0A0041540B
:102D18002B4349504D55583D300D0A0041542B4323
:102D2800574D4F44453D310D0A0041542B43574AF6
:102D380041503D22004E4554474541523833006DBD
:102D4800656C6F64696368696C6C35343600220D94
:102D58000A0041542B4349505345525645523D3180
:102D68002C38300D0A0041542B434950434C4F53E3
:102D7800450D0A0041542B43495053544152543D88
:102D880022544350222C2200222C00434F4E4E4501
:102D980043540041542B43495053454E443D003E53
:102DA8000053454E44204F4B002B4950442C0031D2
:102DB800302E302E302E320073797374656D207486
:102DC800696D65202575205B6D735D0A0025692096
:102DD8002569200A0074657374696E67206E756DC5
:102DE800626572207072696E7420257520257520C1
:102DF80025753A0A00666C6F6174206E756D6265A0
:102E080072202566200A0025662025662025662072
:102E180025662025662025662025662025660A0069
:102E280069646C652025750A000000000000000038
:102E3800010002000400060008000A000C0010004F
:102E48002000400080000001000000000000000099
:102E58000000000001020304010203040607080938
:0400000508002B3193
:00000001FF
