S00F000062696E2F6D61696E2E733139D8
S3150800000000400020292B00080F2B0008232B00088E
S315080000100F2B00080F2B00080F2B0008000000000C
S315080000200000000000000000000000000F2B000880
S315080000300F2B0008000000000F2B0008092C0008F1
S315080000400F2B00080F2B00080F2B00080F2B00089A
S315080000500F2B00080F2B00080F2B00080F2B00088A
S315080000600F2B00080F2B00080F2B00080F2B00087A
S315080000700F2B00080F2B00080F2B00080F2B00086A
S315080000800F2B00080F2B00080F2B00080F2B00085A
S315080000900F2B00080F2B00080F2B00080516000869
S315080000A00F2B00080F2B00080F2B00080F2B00083A
S315080000B00F2B0008790500080F2B00080F2B0008E6
S315080000C00F2B00080F2B00080F2B00080F2B00081A
S315080000D00F2B0008011700080F2B00080F2B00082C
S315080000E0191600080F2B00080F2B00080F2B000805
S315080000F00F2B00080F2B00080F2B00080F2B0008EA
S315080001000000000000000000000000000F2B00089F
S315080001100F2B00080F2B00080F2B00080F2B0008C9
S315080001200F2B00080F2B00080F2B00080F2B0008B9
S315080001300F2B00080F2B000800000000000000002D
S315080001400F2B00080F2B00080F2B000800000000DB
S315080001500000000000000000000000000000000091
S3150800016000000000000000000F2B00080F2B0008FD
S315080001700F2B00080000000000000000000000002F
S30D08000180000000000F2B000827
S3150800018810B5044601F08CF9002803DAA0F51C50CE
S31508000198103810BD204601F045FA002803DAA0F504
S315080001A89C40203810BD0E4800F018FA002803DADB
S315080001B8A0F5EA40303810BD204600F04BFD00286F
S315080001C803DAA0F51C40403810BD04F5B87000F0F5
S315080001D8B3FC0028BCBFA0F54340503810BD00BF8B
S315080001E8F001002070B5054600242846FFF7C8FF29
S315080001F806460A4928462246334601F039FB284668
S315080002081EB9074901F034FB05E00649013401F037
S315080002182FFB082CE9D1304670BD00BF082D000811
S315080002281D2D0008242D000800F5B87000F01CBC28
S3150800023810B5002100F5B87420460A4600F076FC89
S31508000248204601210022BDE8104000F06FBCC0F826
S31508000258781170472DE9F74F00F5987781463846A3
S3150800026888469A46934600F0F5FF384601F016F98F
S3150800027883680025984421480A2100F007FA09F5F9
S31508000288B876BAF1000F11D1384600F0E3FF3846C0
S3150800029801F004F98468C4EB0804002CCCBF0123D8
S315080002A84FF0FF335D4515DA013513E0D0470028CE
S315080002B8EAD0002130460A4600F038FC30460121CB
S315080002C8002200F033FC0D48142103B0BDE8F04FB6
S315080002D800F0DCB903FB05F230460021019300F073
S315080002E825FC019B6A42304601215A4300F01EFC50
S315080002F8002CB8BF6442312CBDDCDAE7F0010020D7
S3150800030800F1080300F12C01002243F8042B8B4264
S31508000318FAD1002342600370704700002DE9F843BC
S31508000328002301F134082DED028B0D4604460370AF
S3150800033841461A4605EB430031F9026FB0F9360013
S315080003488642B8BF13460132092AF3D105EB43039F
S31508000358DFED3B7AB3F9363007EE103AB8EEC77ACE
S31508000368B0EE678AB4EEE77AF1EE10FA63D504F1CF
S315080003780806DFED348A04F12C09374638F9023FB6
S3150800038831485B4200EE103AB8EEC00AA7EC010AFB
S3150800039800F0B2F8F4EEC08AF1EE10FA06D52A484B
S315080003A817ED010A00F0A8F8F0EE408A4F45E5D1A6
S315080003B8D6ED007AC7EEA87AE6EC017A4E45F7D16B
S315080003C801232370B5F93630DFED1D7A07EE103AAA
S315080003D8B8EEC77AB4EEC87AF1EE10FA01D51B4B17
S315080003E828E0B5F93C3007EE103AB8EEC77AB4EE0D
S315080003F8E77AF1EE10FA02D54FF07E531AE0B5F90E
S31508000408383007EE103AB8EEC77AB4EEE77AF1EE66
S3150800041810FA02D54FF03F430CE0B5F93A3007EE2B
S31508000428103AB8EEC77AB4EEE77AF1EE10FA02D5C2
S315080004384FF07C536360BDEC028BBDE8F88300BFC0
S315080004480000A0C217B7D138BC010020000080BF41
S315080004580078704790ED010A7047F0EE007A70EE62
S31508000468200A91EE670A0023036070EE810A43604A
S315080004788360C0ED030A80ED040A80ED051A8361DE
S31508000488C0ED071A704710B50446FFF7E6FF204681
S3150800049810BDD0ED007AD0ED046A90ED017AC0ED72
S315080004A8017A67EEA67AD0ED036A80ED027AE6EE5F
S315080004B8807AD0ED056A80ED000AE6EE877A90ED37
S315080004C8067A77EE877A90ED077AC0ED067AF4EE23
S315080004D8C77AF1EE10FAC8BF80ED067AD0ED067A2B
S315080004E8B1EE477AF4EEC77AF1EE10FA48BF80ED16
S315080004F8067A90ED060A7047B5EEC00AF1EE10FACC
S3150800050848BFB1EE400A704703680B4943F23902FF
S3150800051801FB03224168026041F3000323F03F53BD
S3150800052823F47F1323F47F5323F03E0383EA51030E
S31508000538436083EA020070476D4EC64108B5FFF767
S31508000548E3FF094BB0FBF3F202FB130007EE900A30
S315080005589FED060AF8EEE77AC7EE807AB7EE000A44
S3150800056837EEC00A08BD00BF80841E0000247449FF
S315080005780023154AD15C11B1D15CFF291ED1134954
S3150800058851F8230028B151F82320013A41F82320CD
S3150800059809E00F4850F8230041F82300D25C12B945
S315080005A8094A0121D1540133082BE2D1094A0A48DC
S315080005B8136801210133136002F045B8D15C013193
S315080005C8C9B2D154DBE700BFE4010020C40100200A
S315080005D8F4010020EC0100200004004030B51F4A51
S315080005E8002385B013601E494FF4806241F8232022
S315080005F81C4941F823201C4A0024D4540133082BEB
S31508000608F1D11A4D0220012101F022FF4FF48C7313
S31508000618ADF804302846312301A90293ADF80640FF
S31508000628ADF80C40ADF80E4001F020FF2846012130
S3150800063801F06CFFEB6843F00103EB601D238DF8AE
S315080006480030684601238DF801408DF802308DF890
S31508000658033002F031F9204605B030BDEC01002020
S31508000668C4010020F4010020E40100200004004031
S3150800067882B072B6044B1B68019362B60A230198C6
S31508000688B0FBF3F002B07047EC01002037B50C4612
S315080006980546FFF7EDFF204401902846019CFFF721
S315080006A8E7FF844202D902F003F9F6E703B030BD42
S315080006B872B60A235A43054B43F82120044B43F8DC
S315080006C82120044B00225A5462B67047C401002000
S315080006D8F4010020E4010020054B5A5C02F0FF00F3
S315080006E82AB172B6585C0022C0B25A5462B670472C
S315080006F8E40100202DE9F84F0446894600F02CFB52
S315080007082046722100F052FBB421204600F04EFB29
S31508000718204600F021FB261D2046732100F046FBE3
S31508000728E51C32462046012104F1420A00F080FB06
S3150800073804F1540753462A4612F8011F23F8021FE4
S31508000748BB42F9D101212046324600F071FB294601
S31508000758534633F8022F11F8010FBB4242EA00222A
S315080007681A80F6D132462046012104F10C0800F019
S315080007785FFB04F11E0B43462A4612F8011F23F8AD
S31508000788021F5B45F9D132462046012100F050FB8D
S315080007982A4638F8023F12F8011FD84543EA0123CA
S315080007A8A8F80030F5D132462046012100F040FB72
S315080007B804F130085B462A4612F8011F23F8021F7F
S315080007C84345F9D132462046012100F031FB2A4635
S315080007D83BF8023F12F8011FC34543EA0123ABF869
S315080007E80030F5D132462046012100F021FB434668
S315080007F82A4612F8011F23F8021F5345F9D1324633
S315080008082046012100F014FB2A4638F8023F12F860
S31508000818011FD04543EA0123A8F80030F5D132462E
S315080008282046012100F004FB04F166083B462A46E7
S3150800083812F8011F23F8021F4345F9D12046002163
S31508000848324600F0F5FA37F8023F15F8012F474502
S3150800085843EA02233B80F6D1204600F092FAB9F122
S31508000868000F27D00023E189B4F89E200A44A4F88B
S315080008789E20218CB4F8B0200A44A4F8B020618ED2
S31508000888B4F8C2200A44A4F8C220B4F85610B4F83A
S31508000898E6200A44A4F8E620B4F84410B4F8D420AC
S315080008A801330A44092BA4F8D42004F10204DAD146
S315080008B8BDE8F88F494672B6E389B4F89E00B4F8DD
S315080008C8B020B4F8C250B4F8E660181A238C9A1AFD
S315080008D8638E5B1BB4F85650AD1BA4F85650B4F893
S315080008E8D460B4F8445080B292B29BB2AD1BE08192
S315080008F822846386A4F8445062B600B212B28518F8
S315080009081BB2ED1811D0C0EB0020C2EB022290FBF7
S31508000918F5F092FBF5F2C3EB0323A4F8680093FB02
S31508000928F5F3A4F87A20A4F88C300131092904F1E2
S315080009380204C0D1BDE8F88FF0B5034685B0044671
S31508000948064609250022013DDA811A845A86A3F843
S315080009585620A3F84420A3F89E20A3F8B020A3F8AD
S31508000968C220A3F8E620A3F8D420A3F86820A3F8A1
S315080009787A20A3F88C2003F10203E3D14FF09043C1
S3150800098808221A85204600F0E9FA204672218122B3
S31508000998FF2300F034FA204672218322FF2300F051
S315080009A82EFA204672218D222B4600F028FA72214B
S315080009B880220323204600F022FA204600F01AFB7C
S315080009C88F2223237221204600F019FA204600F0C8
S315080009D814FB01AF20462946FFF78CFE3B46204606
S315080009E87221922200F098FA2B46FA5C692A1CBFF3
S315080009F801229A4003F1010318BF1543092BF4D1C4
S31508000A08042720460121FFF775FE013FF9D1092180
S31508000A18B6F99E309B08A6F89E30B6F9B0309B0802
S31508000A28A6F8B030B6F9C2309B08A6F8C230B6F9AF
S31508000A38E6309B08A6F8E630B6F9D43001394FEA0D
S31508000A489303A6F8D43006F10206E1D12046FFF74B
S31508000A5851FE15B10248401B00E0284605B0F0BD16
S31508000A6818FCFFFF0E307047704700002DE9F0416B
S31508000A7886B070230193DFF870801A4CD8F8000006
S31508000A880123ADF808300423ADF80A3042F210778E
S31508000A980223B0FBF7F002381646ADF810304FF4CB
S31508000AA88072002364254143B1FBF5F001A9039040
S31508000AB82046ADF81230ADF81420ADF8163001F01E
S31508000AC833FDD8F80030B3FBF7F32046023B01A9FB
S31508000AD803FB06F2B2FBF5F2039201F06BFD06B0D2
S31508000AE8BDE8F081002C014030000020026841680A
S31508000AF84FF0904310B5002A4FF40044CEBF1C852A
S31508000B089C615242084B00294FF02004D6BF49423F
S31508000B181C859C616429A8BF6421642AA8BF64222D
S31508000B28BDE81040FFF7A2BF00040048012998BF96
S31508000B3840F82120FFF7DABF2DE9F043424E87B087
S31508000B4800240125804603274FF01009304601A9DD
S31508000B58CDF804908DF808508DF80A408DF809707C
S31508000B688DF80B4001F074FFA6F82890202330462C
S31508000B7801A901938DF808508DF80A408DF8097077
S31508000B888DF80B4001F064FF4FF4004301A94FF0BC
S31508000B98904001938DF808508DF80A408DF8097031
S31508000BA88DF80B4001F054FF29464FF4006001F018
S31508000BB841FC29464FF4802001F02EFC4FF4C0432F
S31508000BC801933046022301A98DF808308DF809707B
S31508000BD801F03EFF30460D21062201F07FFF304620
S31508000BE80E21062201F07AFF184E194BADF80C4073
S31508000BF842F21072304603A91B68B3FBF2F3013BB5
S31508000C080493ADF80E40ADF81440ADF8164001F05F
S31508000C182DFC224640462146FFF728FF304629463E
S31508000C2801F074FC3046294601F002FD404621468B
S31508000C382246FFF77BFF404629462246FFF776FFFE
S31508000C48204607B0BDE8F08300040048002C0140A0
S31508000C583000002010B50446084800F013FA20466C
S31508000C68FFF76AFE10B1A0F57A7010BD04F5987002
S31508000C7800F098FB08B1A0F5FA6010BD1402002030
S31508000C8800BF00BF00BF00BF70470000F7B5037874
S31508000C980093012405460327002669464FF090402D
S31508000CA88DF807608DF804408DF805708DF80640B4
S31508000CB801F0CEFE4FF090432A781A858DF8076022
S31508000CC8084E0094304669468DF804408DF805703C
S31508000CD88DF8064001F0BCFE34852846FFF7D0FF9C
S31508000CE803B0F0BD00040048F7B503780093002464
S31508000CF80546032769464FF090408DF804408DF85D
S31508000D0807408DF8057001F0A3FE4FF090432A7846
S31508000D189A618DF804408DF80740074C8DF80570E0
S31508000D28012620466946009601F092FEA6612846E5
S31508000D38FFF7A6FF03B0F0BD000400484FF0904344
S31508000D484FF480721A85FFF79BBF4FF090434FF414
S31508000D5880729A61FFF794BF10B50446FFF7F5FF4E
S31508000D682046FFF7C1FF2046FFF7EFFF2046FFF7AB
S31508000D788DFF2046FFF7E2FF2046BDE81040FFF743
S31508000D88B3BF10B50446FFF7D9FF2046FFF77EFF25
S31508000D982046FFF7DAFF2046FFF778FF2046FFF7D9
S31508000DA8D4FF2046BDE81040FFF79EBF70B504463D
S31508000DB80E4608252046FFF7C1FF3306204602D50A
S31508000DC8FFF792FF01E0FFF761FF2046013DFFF7B5
S31508000DD8BCFF760015F0FF05F6B2EBD12046FFF703
S31508000DE8ADFF2046FFF780FF2046FFF7AEFF2046F7
S31508000DF8FFF7A4FF2046BDE87040FFF741BFF8B5E6
S31508000E0804460F4616461D46FFF7A6FF20463946EE
S31508000E18FFF7CCFF20463146FFF7C8FF204629468C
S31508000E28FFF7C4FF2046BDE8F840FFF7AABF000051
S31508000E382DE9F843571E05468946144602F108085F
S31508000E483B46002203F8012F4345FAD12846FFF707
S31508000E5875FF2846FFF748FF08263B4613F8012F73
S31508000E68520043451A70F9D12846FFF76EFF4FF02E
S31508000E7890431B8A9BB2D90742BF227842F00102E7
S31508000E8822709A0742BF627842F0010262705807D8
S31508000E9842BFA27842F00102A270190742BFE2785F
S31508000EA842F00102E270DA0642BF227942F00102F4
S31508000EB82271980642BF627942F0010262715906A8
S31508000EC842BFA27942F00102A2711A0642BFE3792B
S31508000ED843F00103E3710F4B1B8ADB0742BF237AF2
S31508000EE843F0010323722846FFF728FF013EB4D1D1
S31508000EF8B9F1000F02D02846FFF7C8FE2846FFF7C3
S31508000F0824FF2846FFF71AFF2846BDE8F843FFF7E7
S31508000F18B7BE00BF00040048F8B504460D46174694
S31508000F281E46FFF719FF20462946FFF73FFF3946B1
S31508000F382046FFF73BFF2046FFF70EFF204645F001
S31508000F480101FFF733FF204632460021FFF770FFFD
S31508000F582046BDE8F840FFF714BF00002DE9F34125
S31508000F684FF0FF3300240546012603270360694628
S31508000F784FF480734FF0904000938DF806408DF833
S31508000F8807404FF0FF088DF804608DF8057001F0EA
S31508000F985FFD69464FF090408DF804408DF807408C
S31508000FA8CDF800808DF8057001F052FD41464FF0E6
S31508000FB8904001F08FFD8DF804408DF807400C4CE1
S31508000FC80096204669468DF8057001F041FD3146C0
S31508000FD8204601F07FFD2846FFF7B7FE2846FFF7AB
S31508000FE855FE2846FFF780FE02B0BDE8F08100BF2F
S31508000FF8000400480023036070474FF0FF3303607E
S3150800100870470B23013B01D000BFFBE77047000080
S3150800101873B50C4C01230322064680258DF8043047
S315080010288DF806302046002369468DF805208DF888
S315080010380730009501F00CFD25853046FFF7E1FFDE
S3150800104802B070BD00040048054B1A6822F44042F5
S315080010581A601A681A6080229A61FFF7D2BF00BF21
S3150800106800040048024B40221A85FFF7CABF00BF92
S3150800107800040048024B40229A61FFF7C2BF00BF2E
S315080010880004004813B5044601214FF4802001F0F6
S31508001098C3F9C02300930123032269468DF8043057
S315080010A88DF8063009488DF8052000238DF8073095
S315080010B801F0CEFC2046FFF7DDFF2046FFF7A8FF24
S315080010C82046FFF7C1FF02B010BD00BF0004004864
S315080010D810B50446FFF7CEFF2046FFF7B5FF2046B2
S315080010E8FFF7C8FF2046FFF793FF2046FFF7BAFF2A
S315080010F82046BDE81040FFF7A7BF10B50446FFF71E
S31508001108B1FF2046FFF784FF2046FFF7B3FF2046C6
S31508001118FFF77EFF2046FFF7ADFF2046BDE81040E3
S31508001128FFF792BF70B504460E4608252046FFF716
S3150800113899FF3306204602D5FFF786FF01E0FFF739
S3150800114867FF2046013DFFF795FF760015F0FF0576
S31508001158F6B2EBD12046FFF785FF2046FFF774FF66
S315080011682046FFF787FF074B1D8A2046FFF77AFFB9
S31508001178ADB22046FFF745FF85F08000C0F3C010E2
S3150800118870BD00BF00040048F8B504460F46164669
S315080011981D46FFF79DFF39462046FFF7C3FF314630
S315080011A82046FFF7BFFF20462946FFF7BBFF204624
S315080011B8BDE8F840FFF7A1BFF8B505460F46FFF7A3
S315080011C851FF082600242846FFF754FF104B1B8AB0
S315080011D864001B06E4B2284606F1FF3648BF44F009
S315080011E80104FFF73FFF16F0FF06ECD1284617B1B2
S315080011F8FFF70EFF01E0FFF727FF2846FFF73AFF3C
S315080012082846FFF72FFF2846FFF71EFF2046F8BD9A
S315080012180004004870B504460D461646FFF758FF01
S3150800122829462046FFF77EFF31462046FFF77AFF14
S315080012382046FFF74DFF45F001012046FFF772FFEC
S3150800124800212046FFF7B8FF05462046FFF755FF59
S31508001258284670BD70B5524C05462046FFF738FF3C
S315080012682046D421FFF75EFFA8212046FFF75AFF3C
S315080012782046FFF72DFF2046D521FFF753FF2046C6
S315080012880121FFF799FF012186B22046FFF794FF4F
S3150800129846EA002000B2686201212046FFF78CFF63
S315080012A8012186B22046FFF787FF46EA002000B2EA
S315080012B8A86201212046FFF77FFF002186B2204653
S315080012C8FFF77AFF46EA002000B2E8622046FFF7F1
S315080012D814FF2046FFF7FCFE20463C21FFF722FFB5
S315080012E8A8212046FFF71EFF2046FFF7F1FE2046F5
S315080012F83D21FFF717FF20460121FFF75DFF012172
S3150800130886B22046FFF758FF46EA002000B228634F
S3150800131801212046FFF750FF012186B22046FFF734
S315080013284BFF46EA002000B2686301212046FFF712
S3150800133843FF002186B22046FFF73EFF46EA002013
S3150800134800B2A8632046FFF7D8FEAA6A6B68E86A5F
S315080013589B1AEA68C82693FBF6F31A44EB6BEA600D
S315080013686421594340F6E2144A432B6892FBF4F287
S31508001378AA616A6A9B1A2A6993FBF6F31A442A61D0
S315080013884A4392FBF4F2EA61AA68121A92FBF6F04B
S315080013986A6983186B614B4393FBF4F32B6270BD40
S315080013A8140200200A232DE9F041C36300230446EA
S315080013B8036043608360C3600361436142F2117549
S315080013C8013D01D000BFFBE73248D4210F22FFF7C1
S315080013D821FFD428064655D12E483C210F22FFF76F
S315080013E819FF492852D131462A482022FF23FFF7F8
S315080013F8CBFE31462748284E23221023FFF7C4FE82
S3150800140824483C211F222B46FFF7BEFE21483C21D3
S3150800141820226723FFF7B8FE1E483C2121222B46C7
S31508001428FFF7B2FE013E01D000BFFBE72046FFF7F3
S3150800143811FF64253746B0466523013B01D000BF36
S31508001448FBE72046FFF706FF636A9844A36A1F442A
S31508001458E36A013D1E44EFD16422256398FBF2F343
S3150800146897FBF2F796FBF2F623606760A66065635A
S31508001478A5636562A562E562A561E56125622846F8
S31508001488BDE8F0814FF0FF30BDE8F0816FF001004C
S31508001498BDE8F08114020020A186010018307047C3
S315080014A82DE9F04F4FF4003087B0012100F0B4FF62
S315080014B8444F4FF48020012100F0AEFF4FF400207E
S315080014C80121002400F0A8FF01254FF4004803264F
S315080014D8384602A98DF80D60CDF808808DF80C50AD
S315080014E88DF80E408DF80F4001F0B2FA4FF480538C
S315080014F8384602A902938DF80D608DF80C408DF8D0
S315080015080F4001F0A5FA4FF4825302A92E48029318
S315080015188DF80C408DF80F5001F09AFA284629469E
S3150800152800F088FF4FF0100B0621022001F01EFB81
S315080015384FF0060A0DEB0B000F26CDF810A08DF814
S3150800154814408DF815B08DF8165001F0EFF91723E9
S3150800155801A88DF804308DF805608DF806608DF8B9
S31508001568075001F0A9F90C21022001F0FFFA4FF003
S315080015780C090DEB0B00CDF810908DF814408DF87A
S3150800158815B08DF8165001F0D1F9282301A88DF861
S3150800159804308DF805608DF806608DF8075001F05F
S315080015A88BF9504601F048FA484601F045FA074BC8
S315080015B81C60074B20461C60C7F8188007B0BDE8B2
S315080015C8F08F00BF000400480008004818020020F1
S315080015D81C020020014B9961704700BF00040048AF
S315080015E8014B89B21985704700040048024B188ACE
S315080015F880B221EA0000704700040048034A1368CD
S3150800160806200133136001F017BA00BF180200203C
S31508001618034A13680C200133136001F00DBA00BFA2
S315080016281C02002030B52F4A002313602E4A8BB0BF
S3150800163813602E4A0024D4540133102BF9D14FF4E1
S315080016480030012100F0E8FE4FF48040012100F047
S31508001658F1FE4FF4C063029302238DF80C3002A9F9
S3150800166803234FF090408DF80D308DF80E408DF815
S315080016780F4001F0EDF94FF090400921072201F0DB
S315080016882DFA07224FF090400A2101F027FA4FF465
S31508001698E133049304A90C23154808930594069482
S315080016A80794099400F0D4FF1148012101F032F893
S315080016B8012210490E4801F03DF80125252301A805
S315080016C88DF804308DF805408DF806408DF80750DA
S315080016D801F0F2F80648294601F01CF820460BB036
S315080016E830BD00BF2002002034020020240200205A
S315080016F8003801400501050008B50D480D4901F0F7
S3150800170833F878B10A4801F010F80B4B0B491A68F8
S31508001718C0B288541A6801321A601A680F2A84BF38
S3150800172800221A6002480349BDE8084001F03AB8A1
S315080017380038014005010500200200202402002087
S31508001748044BDA69120601D400BFF9E789B219858C
S31508001758704700BF0038014038B505464C1E14F8D6
S31508001768011F19B12846FFF7EBFFF8E7012038BD36
S315080017787FB50B1E4FF00002BABF5B42012515461E
S315080017888DF80F200A210A2201AC93FBF2F602FB18
S31508001798163330330B554A1E33460EB11146F2E757
S315080017A82DB104AB13442D2103F80C1C1146214412
S315080017B8FFF7D2FF04B070BD30B585B000238DF8A9
S315080017C80F300A220A2301ACB1FBF3F503FB151304
S315080017D8303313552946531E0DB11A46F2E7A11898
S315080017E8FFF7BAFF05B030BD1FB500238DF80F30D7
S315080017F80A2201F00F03092B01ACD4BF3033573343
S315080018080909A35402F1FF3301D01A46F1E7A118D2
S31508001818FFF7A2FF04B010BD38B50022054601231C
S315080018288A4203D00A2043430132F9E7BDEEC07A5B
S315080018382846F8EEC77A17EE101A30EE670A07EE4A
S31508001848903AF8EE677A20EE270AFDEEC07A17EE88
S31508001858904AFFF78DFF28462E21FFF771FF84EA85
S31508001868E4712846A1EBE471BDE83840FFF780BF6C
S315080018780EB477B507AB044653F8046B01930025F5
S31508001888715D002954D0252904D02046FFF758FF52
S315080018980135F5E773195978692916D007D86329E0
S315080018A82BD0662931D0252940D120462AE075292A
S315080018B813D0782919D0732938D1019B20461A1DC7
S315080018C819680192FFF748FF30E0019B20461A1D68
S315080018D819680192FFF74CFF28E0019B20461A1D5C
S315080018E819680192FFF768FF20E0019B20461A1D38
S315080018F819680192FFF778FF18E0019B1A1D1978F5
S3150800190801922046FFF71CFF10E0019B073323F0DE
S31508001918070303F10802D3E90001019201F094F9DB
S31508001928032100EE100A2046FFF776FF0235A7E7DF
S3150800193803B0BDE8704003B0704700F124030022E5
S3150800194840F8042B9842FAD1704700F10C03F1ECE1
S31508001958017AD0ED006AB7EE007A37EE407A60EE83
S31508001968277AE7EE267AE0EC017A9842EFD17047B3
S31508001978F8B5DFED186AD0F800E3002603463446C2
S3150800198874451BD02425DFED147A0F4605FB04356C
S3150800199801F12400B7EC017AB5EC016A37EE467A0C
S315080019A88742E7EE077AF5D1F4EEE67AF1EE10FA11
S315080019B844BF2646F0EE676A0134E1E703F510737B
S315080019C80C21104601FB0631B7EE000AFFF7BDFFEA
S315080019D8F8BD00BF20BCBE4C000000002DE9F84F3A
S315080019E808232DED068B00F1A005C0F8A033D54BCA
S315080019F8C0F8A433044600F538782E4606F12407BD
S31508001A08D148FEF79BFDA6EC010ABE42F8D1464529
S31508001A18F4D1234604F1C002DFEDCC8A0C33C3EDBA
S31508001A28B58AC3EDB68AC3EDB78A9342F4D10023C3
S31508001A3804F1580723656365384604F17C09FFF7FE
S31508001A487CFF4846FFF779FFBFEE00AAC4EDEA8A8D
S31508001A58C4EDEB8AC4EDEC8A0021BD48FEF74AFEC0
S31508001A68BB48FEF7FFFF01462046FEF757FC20460F
S31508001A78FEF7F0FC04F14C0304F12C0253F8041D9C
S31508001A8859609342FAD184ED0B0A3E460FCE04F10B
S31508001A987C0EAEE80F000FCEAEE80F003368CEF81E
S31508001AA8003004F12C0EBEE80F00BC46ACE80F0067
S31508001AB8BEE80F00ACE80F00DEF80030336004F526
S31508001AC86A76324628463946FFF752FF636D23651C
S31508001AD89D48FEF719FD6423B0FBF3F202FB1300D9
S31508001AE813280BD89848FEF70FFD4FF0030AB0FBEA
S31508001AF8FAFA0AEB4A0ACAEB000A12E04FF0000A99
S31508001B083246534604EB8A01B2EC017AD1EDEA7AF9
S31508001B18B4EE677AF1EE10FAC8BF9A460133032B7A
S31508001B28F0D1BAF1010FC4F854A014D00BD3BAF106
S31508001B38020F1AD1874800212122FEF7F7FF8548A8
S31508001B48012100220FE0834800212122FEF7EEFF3B
S31508001B588048012106E000217E480A46FEF7E6FF8E
S31508001B687C4851462122FEF7E1FF7B483221FEF7E1
S31508001B788DFD00217648FEF7BDFD7548FEF772FF14
S31508001B8801462046FEF7CAFB2046FEF763FC6E4868
S31508001B98FEF7B2FCF7EE009AD4F854B0D4F850A081
S31508001BA839EEC00AF6EE007A28463946324604EB7C
S31508001BB88B0B30EE679AFFF7DBFED4EDEA7A9BEDDE
S31508001BC8EA8AB4EE678AF1EE10FA48BFB0EE678A79
S31508001BD8D4EDEB7AB4EE678AF1EE10FA48BFB0EEA8
S31508001BE8678AD4EDEC7AB4EE678AF1EE10FA2846DD
S31508001BF84946324648BFB0EE678AFFF7B9FEDFEDB9
S31508001C08577AD4F8A003DFED566AB0EE497AA8EEFB
S31508001C18277A04EB8A0A0021AE468AEDEA7A0A464A
S31508001C28824204F17C0318D0DFED487AF446B3EC17
S31508001C38017ABCEC016A37EE467AAB42E7EE077AD8
S31508001C48F5D1F4EEE67AF1EE10FA44BF1146F0EE55
S31508001C58676A01320EF1240EE2E70F284FF02402D4
S31508001C681AD802FB0042A032F3EC017A92ED007A08
S31508001C78E7EE287AAB42E2EC017AF5D10C2303FBAE
S31508001C8800803146B7EE000AFFF75FFED4F8A033A6
S31508001C980133C4F8A0331AE002FB0142D4EDE96A1D
S31508001CA8A032F3EC017A92ED006A39EEE67A66EE2E
S31508001CB8A77AAB42E7EE067AE2EC017AF1D10C2074
S31508001CC800FB018094EDE90A3146FFF73EFE2046FF
S31508001CD8FEF7BEFB0646F0B91E4831466FF02002ED
S31508001CE8FEF724FF6FF020021A480121FEF71EFFAF
S31508001CF819484FF49671FEF7C9FC1648314632461C
S31508001D08FEF714FF134801213246FEF70FFF124863
S31508001D186421FEF7BBFC9FED130ADFED137A0C4826
S31508001D28124929EE009AAAEE279ADFED117A69EE8A
S31508001D38277AB0EE49AAFDEEE77A17EE902AFFF75A
S31508001D4897FD89E6CDCCCC3DBC01002000000000FB
S31508001D5838000020A8010020F00100206666663FCA
S31508001D6820BCBE4C0AD7233CA4707D3F482D0008EA
S31508001D7800007A447047000008B54FF400410A4845
S31508001D88FFF728FC0948FEF773FC09490246064886
S31508001D98FFF76EFD05480A21FEF778FC02484FF45E
S31508001DA80041FFF71DFCE8E738000020F001002095
S31508001DB8302D000870B51C4C1C4D20464FF4617137
S31508001DC832220023FEF746FA20464FF46171322282
S31508001DD80023FEF73FFA20464FF4617132220023AA
S31508001DE8FEF738FA20464FF4617132220023FEF7CF
S31508001DF831FA2046294632220023FEF72BFA2046D6
S31508001E08294632220023FEF725FA20462946322299
S31508001E180023FEF71FFA2046294632220023BDE88A
S31508001E287040FEF717BA00BF380000207CFCFFFF99
S31508001E3810B594B009A8FEF763FA01A8B2EE040A29
S31508001E48DFED380ADFED381AB2EE001AFEF71BFB8B
S31508001E58364800210A22FEF72BFC34480021FEF7F3
S31508001E683BFC0028F9D000213148FEF743FC3048EE
S31508001E78FEF7F8FD014609A8FEF750FA09A8FEF785
S31508001E88E7FA044609A8FEF7E5FADFED2A7A2848AC
S31508001E98294920EE270A2246FDEEC07A17EE903A1F
S31508001EA8FFF7E6FC09A8FEF7D3FA0446D0B109A855
S31508001EB8FEF7D0FADFED1B7A01A837EEC00AFEF75F
S31508001EC8E8FAFDEEC07A1D4817EE904A002104F19B
S31508001ED81902FEF72BFE19480121C4F11902FEF76B
S31508001EE825FEBAE7214615486FF01802FEF71EFECA
S31508001EF86FF0180211480121FEF718FE0B484FF437
S31508001F089671FEF7C3FB214622460C48FEF70EFEDD
S31508001F180A4801212246FEF709FE04486421FEF70D
S31508001F28B5FB9AE7000000000000C842F00100204F
S31508001F383800002000007A44452D0008A801002032
S31508001F48022908B507D0032907D001290AD1FFF7BE
S31508001F5831FFFFF711FFFFF76BFF0348BDE808409D
S31508001F68FFF73CBD08BD00BF38020020000000008E
S31508001F7830B58FB000F09EFC6348FEF733F90A21A6
S31508001F886148FEF764F948A5D5E900455E48FEF7B5
S31508001F984BF90422082300935B485C491346FFF76C
S31508001FA867FC59485A4922462B46FFF761FC594BA4
S31508001FB8554859490022CDE900233DA3D3E9002312
S31508001FC8CDE902233CA3D3E90023CDE906233CA3A4
S31508001FD8D3E90023CDE908233BA3D3E90023CDE9B8
S31508001FE80A233BA3D3E90023CDE90445CDE90C230D
S31508001FF800220023FFF73CFC484B43484649002289
S31508002008CDE9002334A3D3E90023CDE9022334A379
S31508002018D3E90023CDE9042333A3D3E90023CDE983
S31508002028062333A3D3E90023CDE9082332A3D3E94A
S315080020380023CDE90A2332A3D3E90023CDE90C23EB
S3150800204800224FF00043FFF713FC2F484FF4805146
S31508002058FFF7CCFA48B12C48FEF7EAF83048FFF7FC
S3150800206889FE2F480321FFF76BFF27484FF40041E5
S31508002078FFF7B0FA2B480A21FEF708FB22484FF467
S315080020880041FFF7ADFA4FF496712648FEF7FEFAB7
S315080020982448FEF7EDFA244902461B48FFF7E8FBF1
S315080020A8D3E700BFAFF3008000000060FB210940BA
S315080020B800000000D09ABF3F00000020516240404F
S315080020C800000060454A9340000000C0CCCC16408A
S315080020D8000000A047E1164000000000D09ABFBFE4
S315080020E800000060FB2109C000000020516240C0C2
S315080020F800000060454A93C0000000C0CCCC16C05A
S31508002108000000A047E116C0380000204D2D000841
S315080021186D2D00080000F03F7F2D00080000F0BF75
S31508002128F0050020F0010020982D00082DE9F0415F
S315080021389B4F7B6803F00C03042B05D0082B06D0AD
S31508002148984A0260B3B916E0964B036012E07B68BA
S315080021587968C3F383439A1CCB0349BFFB6A924B3E
S31508002168904903F00F0344BF0133B1FBF3F353431C
S31508002178036000E000237A688C4EDFF834C2C2F3A5
S315080021880312B45C0268E4B222FA04F141607D687D
S31508002198C5F30225755D21FA05FEC0F808E07D68D5
S315080021A8C5F3C225755DEDB2E940C160FE6AC6F39E
S315080021B8041808F00F0618F0100F3CF81660E046E9
S315080021C8B6B204D01EB1B3FBF6F6066100E00261AA
S315080021D8FE6AC6F3442C0CF00F061CF0100F38F8EC
S315080021E81660B6B204D01EB1B3FBF6F6466100E037
S315080021F842613E6BF6065ABF6A4E866182613E6B3D
S31508002208B6065ABF674EC661C2613E6B76065ABFA6
S31508002218644E066202623E6BF60506D59A4204D1FA
S31508002228A54202D15600466200E041623E6BF604BA
S3150800223806D59A4204D1A54202D15600866200E024
S3150800224881623E6BB60506D59A4204D1A54202D1EB
S315080022585600C66200E0C1623E6B760506D59A420C
S3150800226804D1A54202D15600C66400E0C1643E6B9B
S31508002278360506D59A4204D1A54202D15600066506
S3150800228800E001653E6BB60406D59A4204D1A5421C
S3150800229802D15600466500E001653E6B360406D550
S315080022A89A4204D1A54202D15300836500E08165AC
S315080022B83C6B3B4BA40701D1816315E0196B01F010
S315080022C80301012901D182630EE0196B01F00301AC
S315080022D8022902D14FF4004305E01B6B03F0030300
S315080022E8032B01D12F4B8363396B2D4B11F4403FD8
S315080022F802D1C0F83CE018E0196B01F44031B1F599
S31508002308803F01D1C26310E0196B01F44031B1F581
S31508002318003F02D14FF4004306E01B6B03F4403339
S31508002328B3F5403F01D11F4BC363396B1C4B11F4FE
S31508002338402F02D1C0F840E018E0196B01F440219B
S31508002348B1F5802F01D1026410E0196B01F4402120
S31508002358B1F5002F02D14FF4004306E01B6B03F4D6
S315080023684023B3F5402F01D10E4B0364396B0C4B50
S3150800237811F4401F02D1C0F844E023E0196B01F4B8
S315080023884011B1F5801F01D142641BE0196B01F4B5
S315080023984011B1F5001F0DD14FF4004311E000BFFD
S315080023A80010024000127A0000093D0020000020B3
S315080023B8000000201B6B03F44013B3F5401F01D13E
S315080023C8134B4364396B134B11F4400F03D1C0F810
S315080023D848E0BDE8F081196B01F44001B1F5800FBA
S315080023E802D18264BDE8F0811A6B02F44002B2F5A4
S315080023F8000F02D14FF4004306E01B6B03F44003B9
S31508002408B3F5400F01D1024B8364BDE8F08100BFE4
S3150800241800127A000010024000BF00BF044B5A6938
S3150800242809B1104301E022EA00005861704700BF6D
S315080024380010024000BF00BF044B9A6909B1104357
S3150800244801E022EA00009861704700BF00100240C8
S3150800245800BF00BF044BDA6909B1104301E022EA5C
S315080024680000D861704700BF0010024000BF00BFD7
S3150800247800BF244A038890429BB212D002F5006234
S3150800248890420ED0B0F1804F0BD0A2F59832904208
S3150800249807D002F58062904203D002F5A432904232
S315080024A803D14A8823F070031343174A904208D089
S315080024B802F5806290421FBF23F440730A899BB2D3
S315080024C8134303804B68C3620B8803850D4B9842F8
S315080024D813D003F5006398420FD003F5406398427A
S315080024E80BD003F58063984207D003F580639842BA
S315080024F803D003F50063984201D14B89038601236B
S3150800250843617047002C01400010004000BF00BF1F
S31508002518038819B19BB243F0010303E023F00103D2
S315080025281B041B0C0380704770B500BF00BF00BFB3
S3150800253800BF036A0D6823F001030362036A44684F
S31508002548826922F4803222F0730215438A8923F0BD
S31508002558020313438A881343154A90420FD002F59B
S31508002568006290420BD002F54062904207D002F50D
S315080025788062904203D002F58062904211D100BF72
S3150800258800BF00BF00BFCA89CE8823F008031343DB
S315080025980A8A24F4407414434A8A23F0040333430A
S315080025A814438A68446085614263036270BD00BF4C
S315080025B8002C014070B500BF00BF00BF00BF036A0A
S315080025C80D688E8923F010030362036A44688269DA
S315080025D822F0807222F4E64242EA052523F0200218
S315080025E88B88334342EA0313104A904203D002F514
S315080025F80062904214D100BF00BF00BF00BFCA895D
S315080026080E8A23F0800343EA0213CA8823F040039C
S3150800261843EA02134A8A24F44064324344EA8204A9
S315080026288A68446085618263036270BD002C014034
S3150800263800BF00BF436C11B143F4004301E0C3F384
S315080026480E034364704700BFC94389B201617047E6
S3150800265830B5044699B00D4600BF00BF00BF00BF9D
S3150800266800BF00BF00BF036823F001030360436887
S3150800267823F440528B68C968134343606A68036841
S3150800268811432A6923F4B0530A4323F00C0313436E
S315080026980360836823F440726B691343836001A857
S315080026A8FFF744FD174B9C4201D10F9B0EE0164BD2
S315080026B89C4201D1109B09E0144B9C4201D1119B05
S315080026C804E0134B9C420CBF129B139B2268296893
S315080026D812F4004F18BF5B00B3FBF1F201FB12338B
S315080026E8B3EB510F236828BF01321B0441BF4FF6CD
S315080026F8F073C2F34201134041EA030292B2A2817F
S3150800270819B030BD00380140004400400048004078
S31508002718004C004000BF00BF036811B143F0010335
S3150800272801E023F001030360704700BF808CC0F303
S315080027380800704710B500BF00BF00BFC1F30724E3
S315080027480123C9B2022C03FA01F301D1043002E0CD
S31508002758032C08BF083012B10268134302E0026866
S3150800276822EA0303036010BD10B500BF00BFC1F31A
S315080027780722CCB20123012A03FA04F301D102681D
S3150800278803E0022A0CBF426882681340C2693BB15B
S31508002798090C01238B40134214BF0120002010BDE9
S315080027A8184610BD00BF00BF0123090C8B40036201
S315080027B870470000394AD2F8883043F47003C2F8E3
S315080027C88830374B1A6842F001021A605968354A48
S315080027D80A405A601A6822F0847222F480321A6013
S315080027E81A6822F480221A605A6822F4FE025A608D
S315080027F8DA6A22F00F02DA62196B2B4A82B00A40AB
S315080028081A6300229A60009201921A6842F480328A
S315080028181A601A6802F400320192009A013200928C
S31508002828019A1AB9009AB2F5A04FF2D11A6812F4A9
S31508002838003218BF01220192019A012A05D0174BC6
S315080028484FF000629A6002B07047184A1221116068
S315080028585A685A605A685A605A6842F480625A60D6
S315080028685A6822F47C125A605A6842F4E8125A6086
S315080028781A6842F080721A601968094A8901FBD5F4
S31508002888516821F003015160516841F00201516015
S315080028985A6802F00C02082AFAD1D0E700ED00E0DF
S315080028A8001002400CC07FF8CCFC00FF0020024054
S315080028B800BF7047FFF77EBF10B500BF00BF00BF57
S315080028C8C278037812B3174AD1684278C943C1F364
S315080028D80221C1F10404E4B2A240D4B20F220A418B
S315080028E881780A40224303F1604303F561431201E4
S315080028F8D2B283F8002303780122590903F01F038B
S3150800290802FA03F3084A42F8213010BD5A09012190
S3150800291803F01F03994002F12003034A42F82310E3
S3150800292810BD00BF00ED00E000E100E070B500BF93
S3150800293800BF00BF00BF827903680479002A64D003
S3150800294823F01F0101F1804101F5823103F01F02CE
S315080029580D68012303FA02F225EA02020A600268F0
S31508002968324D22F01F0602F01F02715903FA02F2CD
S3150800297821EA02027251016804F1804202F58232A4
S3150800298821F01F0401F01F01155903FA01F1294323
S3150800299811510268264D22F01F0402F01F026159E0
S315080029A803FA02F221EA020262510268214C22F075
S315080029B81F0602F01F02315903FA02F221EA02023F
S315080029C8417932511029026812D122F01F0102F00A
S315080029D81F024E5903FA02F232434A51026822F09C
S315080029E81F0102F01F020859934003430B5170BD9B
S315080029F801F1804122F01F0001F5823102F01F0221
S31508002A080C58934023430B5070BD04F1804202F5DD
S31508002A18823223F01F040120115903F01F0300FA1C
S31508002A2803F321EA0303135170BD00BF04040140F0
S31508002A38080401400C04014020F01F01012300F09E
S31508002A481F00024A83408B50704700BF1404014098
S31508002A58F0B500BF00BF00BF00BF00230E681C46C4
S31508002A680125A54005EA060EAE452DD10F797A1E31
S31508002A78012A17D800BF032285689A4025EA020268
S31508002A8882604D7982689D401543856000BF8288BB
S31508002A9892B222EA0E0282808A798588A2402A435F
S31508002AA892B28280032205689A40D243154005608F
S31508002AB805689F402F430760C7681740CA7902FA16
S31508002AC803F547EA0502C2600134102C03F1020334
S31508002AD8C6D1F0BD00BF00BF8161704710B500BF01
S31508002AE800BF00BF01F00703C90800EB81009B007F
S31508002AF8046A0F21994024EA01010162016A9A4091
S31508002B080A43026210BD684620F007018D4601B5E2
S31508002B1800BFBDE801408546704700BFFDE70000D5
S31508002B280E490F4B5B1A9B1000229A4206D00D4895
S31508002B3850F8220041F822000132F6E70A4AD2F88C
S31508002B48883043F47003C2F8883002F50C7253686B
S31508002B5823F040435360FFF70BBA00BF000000207C
S31508002B6834000020A82D000800ED00E010B500BFCD
S31508002B7800BF01F0030301F0FC0101F1804101F5F2
S31508002B8880319B008C680F229A4024EA02028A60E8
S31508002B988A6898401043886010BD000070B5002206
S31508002BA81146154B0C2000FB01F41E19756815F023
S31508002BB8020F1D460AD17668F60707D550431C5BEF
S31508002BC8185AA4B280B2844238BF0A460C20484331
S31508002BD81C5AA4B21CB11C5A013CA4B21C5201319D
S31508002BE80629DED10C235343E918498889B2E952E4
S31508002BF8024B1A6070BD00BFB0060020F806002018
S31508002C082DE9F00FEFF308830D4C0E4D22680132BB
S31508002C181DBF22680C2101FB0252002314BF9360D2
S31508002C282360FFF7BBFF22680C2303FB02539A684D
S31508002C386FF006039E4682F30888BDE8F00F7047D2
S31508002C48F8060020B00600204FEA4102B2F1E04338
S31508002C5824BFB3F5001CDCF1FE5C0DD901F0004C6D
S31508002C684FEAC0024CEA5070B2F1004F40EB8300BD
S31508002C7808BF20F00100704711F0804F21D113F1E9
S31508002C883872BCBF01F00040704741F480114FEA22
S31508002C985252C2F11802C2F1200C10FA0CF320FAAB
S31508002CA802F018BF40F001004FEAC1234FEAD323C8
S31508002CB803FA0CFC40EA0C0023FA02F34FEA430332
S31508002CC8CCE77FEA625307D150EA01331EBF4FF0BB
S31508002CD8FE4040F44000704701F0004040F0FE40D6
S31508002CE840F40000704700BFF8B500BFF8BC08BC40
S31508002CF89E467047F8B500BFF8BC08BC9E467047A4
S31508002D086B6F64616D6120696E6974202569202579
S31508002D1869203A2000205B4F4B5D0A00205B46413C
S31508002D28494C45445D0A0A0073797374656D2074C5
S31508002D38696D65202575205B6D735D0A0025692018
S31508002D482569200A0074657374696E67206E756D47
S31508002D58626572207072696E742025752025752043
S31508002D6825753A0A00666C6F6174206E756D626522
S31508002D7872202566200A00256620256620256620F5
S31508002D8825662025662025662025662025660A00EC
S31508002D9869646C652025750A0000000000000000BB
S31508002DA8010002000400060008000A000C001000D2
S31508002DB8200040008000000100000000000000001C
S31508002DC800000000010203040102030406070809BB
S30908002DD800A24A04F9
S70508002B299E
